{
  "contractName": "Bank",
  "abi": [
    {
      "constant": true,
      "inputs": [],
      "name": "registeredBankersCount",
      "outputs": [
        {
          "name": "",
          "type": "uint256"
        }
      ],
      "payable": false,
      "stateMutability": "view",
      "type": "function"
    },
    {
      "constant": true,
      "inputs": [
        {
          "name": "",
          "type": "address"
        }
      ],
      "name": "rateIndex",
      "outputs": [
        {
          "name": "",
          "type": "uint256"
        }
      ],
      "payable": false,
      "stateMutability": "view",
      "type": "function"
    },
    {
      "constant": true,
      "inputs": [
        {
          "name": "",
          "type": "address"
        }
      ],
      "name": "registeredBankers",
      "outputs": [
        {
          "name": "",
          "type": "bool"
        }
      ],
      "payable": false,
      "stateMutability": "view",
      "type": "function"
    },
    {
      "constant": true,
      "inputs": [],
      "name": "interestPoolBalance",
      "outputs": [
        {
          "name": "",
          "type": "uint256"
        }
      ],
      "payable": false,
      "stateMutability": "view",
      "type": "function"
    },
    {
      "constant": true,
      "inputs": [
        {
          "name": "",
          "type": "address"
        },
        {
          "name": "",
          "type": "uint256"
        }
      ],
      "name": "bankerOpenCDs",
      "outputs": [
        {
          "name": "",
          "type": "uint256"
        }
      ],
      "payable": false,
      "stateMutability": "view",
      "type": "function"
    },
    {
      "constant": true,
      "inputs": [
        {
          "name": "",
          "type": "uint256"
        }
      ],
      "name": "threeMonthRates",
      "outputs": [
        {
          "name": "",
          "type": "uint256"
        }
      ],
      "payable": false,
      "stateMutability": "view",
      "type": "function"
    },
    {
      "constant": false,
      "inputs": [],
      "name": "renounceOwnership",
      "outputs": [],
      "payable": false,
      "stateMutability": "nonpayable",
      "type": "function"
    },
    {
      "constant": true,
      "inputs": [],
      "name": "owner",
      "outputs": [
        {
          "name": "",
          "type": "address"
        }
      ],
      "payable": false,
      "stateMutability": "view",
      "type": "function"
    },
    {
      "constant": true,
      "inputs": [],
      "name": "isOwner",
      "outputs": [
        {
          "name": "",
          "type": "bool"
        }
      ],
      "payable": false,
      "stateMutability": "view",
      "type": "function"
    },
    {
      "constant": true,
      "inputs": [
        {
          "name": "",
          "type": "uint256"
        }
      ],
      "name": "sixMonthRates",
      "outputs": [
        {
          "name": "",
          "type": "uint256"
        }
      ],
      "payable": false,
      "stateMutability": "view",
      "type": "function"
    },
    {
      "constant": true,
      "inputs": [
        {
          "name": "",
          "type": "address"
        }
      ],
      "name": "bankerPoolBalance",
      "outputs": [
        {
          "name": "",
          "type": "uint256"
        }
      ],
      "payable": false,
      "stateMutability": "view",
      "type": "function"
    },
    {
      "constant": true,
      "inputs": [
        {
          "name": "",
          "type": "uint256"
        }
      ],
      "name": "oneMonthRates",
      "outputs": [
        {
          "name": "",
          "type": "uint256"
        }
      ],
      "payable": false,
      "stateMutability": "view",
      "type": "function"
    },
    {
      "constant": false,
      "inputs": [
        {
          "name": "newOwner",
          "type": "address"
        }
      ],
      "name": "transferOwnership",
      "outputs": [],
      "payable": false,
      "stateMutability": "nonpayable",
      "type": "function"
    },
    {
      "inputs": [
        {
          "name": "_cdTokenAddress",
          "type": "address"
        },
        {
          "name": "_dai",
          "type": "address"
        }
      ],
      "payable": false,
      "stateMutability": "nonpayable",
      "type": "constructor"
    },
    {
      "anonymous": false,
      "inputs": [
        {
          "indexed": true,
          "name": "bankerAddress",
          "type": "address"
        },
        {
          "indexed": false,
          "name": "amount",
          "type": "uint256"
        }
      ],
      "name": "BankerInterestAddedToPool",
      "type": "event"
    },
    {
      "anonymous": false,
      "inputs": [
        {
          "indexed": true,
          "name": "bankerAddress",
          "type": "address"
        },
        {
          "indexed": false,
          "name": "amount",
          "type": "uint256"
        }
      ],
      "name": "BankerInterestRemovedFromPool",
      "type": "event"
    },
    {
      "anonymous": false,
      "inputs": [
        {
          "indexed": true,
          "name": "bankerAddress",
          "type": "address"
        }
      ],
      "name": "BankerRegistered",
      "type": "event"
    },
    {
      "anonymous": false,
      "inputs": [
        {
          "indexed": true,
          "name": "bankerAddress",
          "type": "address"
        },
        {
          "indexed": false,
          "name": "oneMonthRate",
          "type": "uint256"
        },
        {
          "indexed": false,
          "name": "threeMonthRate",
          "type": "uint256"
        },
        {
          "indexed": false,
          "name": "sixMonthRate",
          "type": "uint256"
        }
      ],
      "name": "UpdatedBankerInterestRates",
      "type": "event"
    },
    {
      "anonymous": false,
      "inputs": [
        {
          "indexed": true,
          "name": "bankerAddress",
          "type": "address"
        },
        {
          "indexed": false,
          "name": "termLength",
          "type": "uint256"
        },
        {
          "indexed": false,
          "name": "principleAmount",
          "type": "uint256"
        },
        {
          "indexed": false,
          "name": "interestRate",
          "type": "uint256"
        }
      ],
      "name": "OpenedCertificateOfDeposit",
      "type": "event"
    },
    {
      "anonymous": false,
      "inputs": [
        {
          "indexed": false,
          "name": "tokenId",
          "type": "uint256"
        }
      ],
      "name": "RedeemedCertificateOfDeposit",
      "type": "event"
    },
    {
      "anonymous": false,
      "inputs": [
        {
          "indexed": true,
          "name": "previousOwner",
          "type": "address"
        },
        {
          "indexed": true,
          "name": "newOwner",
          "type": "address"
        }
      ],
      "name": "OwnershipTransferred",
      "type": "event"
    },
    {
      "constant": false,
      "inputs": [
        {
          "name": "oneMonth",
          "type": "uint256"
        },
        {
          "name": "threeMonths",
          "type": "uint256"
        },
        {
          "name": "sixMonths",
          "type": "uint256"
        }
      ],
      "name": "registerBanker",
      "outputs": [],
      "payable": false,
      "stateMutability": "nonpayable",
      "type": "function"
    },
    {
      "constant": false,
      "inputs": [
        {
          "name": "amount",
          "type": "uint256"
        }
      ],
      "name": "addBankerInterestToPool",
      "outputs": [],
      "payable": false,
      "stateMutability": "nonpayable",
      "type": "function"
    },
    {
      "constant": false,
      "inputs": [
        {
          "name": "amount",
          "type": "uint256"
        },
        {
          "name": "banker",
          "type": "address"
        },
        {
          "name": "termLength",
          "type": "uint256"
        },
        {
          "name": "principleAmount",
          "type": "uint256"
        },
        {
          "name": "interestAmount",
          "type": "uint256"
        }
      ],
      "name": "addBuyerDepositToPool",
      "outputs": [],
      "payable": false,
      "stateMutability": "nonpayable",
      "type": "function"
    },
    {
      "constant": false,
      "inputs": [
        {
          "name": "amount",
          "type": "uint256"
        }
      ],
      "name": "removeBankerInterestFromPool",
      "outputs": [],
      "payable": false,
      "stateMutability": "nonpayable",
      "type": "function"
    },
    {
      "constant": false,
      "inputs": [
        {
          "name": "oneMonth",
          "type": "uint256"
        },
        {
          "name": "threeMonths",
          "type": "uint256"
        },
        {
          "name": "sixMonths",
          "type": "uint256"
        }
      ],
      "name": "updateBankerInterestRates",
      "outputs": [],
      "payable": false,
      "stateMutability": "nonpayable",
      "type": "function"
    },
    {
      "constant": true,
      "inputs": [
        {
          "name": "termLength",
          "type": "uint256"
        }
      ],
      "name": "getBestRate",
      "outputs": [
        {
          "name": "rate",
          "type": "uint256"
        }
      ],
      "payable": false,
      "stateMutability": "view",
      "type": "function"
    },
    {
      "constant": false,
      "inputs": [
        {
          "name": "tokenId",
          "type": "uint256"
        }
      ],
      "name": "redeemCertificateOfDeposit",
      "outputs": [],
      "payable": false,
      "stateMutability": "nonpayable",
      "type": "function"
    },
    {
      "constant": true,
      "inputs": [],
      "name": "getUserIndexPosition",
      "outputs": [
        {
          "name": "indexPosition",
          "type": "uint256"
        }
      ],
      "payable": false,
      "stateMutability": "view",
      "type": "function"
    }
  ],
  "bytecode": "0x6080604052600060025534801561001557600080fd5b50604051604080611b7a8339810180604052604081101561003557600080fd5b810190808051906020019092919080519060200190929190505050336000806101000a81548173ffffffffffffffffffffffffffffffffffffffff021916908373ffffffffffffffffffffffffffffffffffffffff1602179055506000809054906101000a900473ffffffffffffffffffffffffffffffffffffffff1673ffffffffffffffffffffffffffffffffffffffff16600073ffffffffffffffffffffffffffffffffffffffff167f8be0079c531659141344cd1fd0a4f28419497f9722a3daafe3b4186f6b6457e060405160405180910390a381600b60006101000a81548173ffffffffffffffffffffffffffffffffffffffff021916908373ffffffffffffffffffffffffffffffffffffffff16021790555080600a60006101000a81548173ffffffffffffffffffffffffffffffffffffffff021916908373ffffffffffffffffffffffffffffffffffffffff16021790555050506119db8061019f6000396000f3fe608060405234801561001057600080fd5b50600436106101375760003560e01c80635dc2cd18116100b8578063bd4fc8a81161007c578063bd4fc8a8146104d4578063cb2b32fe14610502578063ef9a697e14610544578063f29fe4c61461059c578063f2fde38b146105de578063fb2f8c891461062257610137565b80635dc2cd18146103ee578063715018a6146104305780637cdd7c181461043a5780638da5cb5b146104685780638f32d59b146104b257610137565b806327c6e693116100ff57806327c6e693146102a85780632e34d8f1146102ea5780633256a217146103085780633834780f1461036a57806344a6e9fc146103ac57610137565b806303f234211461013c5780630830229c1461015a5780630a8f6c1b146101c657806322022aeb1461021e578063230bc2881461024c575b600080fd5b610144610640565b6040518082815260200191505060405180910390f35b6101c4600480360360a081101561017057600080fd5b8101908080359060200190929190803573ffffffffffffffffffffffffffffffffffffffff169060200190929190803590602001909291908035906020019092919080359060200190929190505050610646565b005b610208600480360360208110156101dc57600080fd5b81019080803573ffffffffffffffffffffffffffffffffffffffff16906020019092919050505061077e565b6040518082815260200191505060405180910390f35b61024a6004803603602081101561023457600080fd5b8101908080359060200190929190505050610796565b005b61028e6004803603602081101561026257600080fd5b81019080803573ffffffffffffffffffffffffffffffffffffffff16906020019092919050505061085d565b604051808215151515815260200191505060405180910390f35b6102d4600480360360208110156102be57600080fd5b810190808035906020019092919050505061087d565b6040518082815260200191505060405180910390f35b6102f26109d2565b6040518082815260200191505060405180910390f35b6103546004803603604081101561031e57600080fd5b81019080803573ffffffffffffffffffffffffffffffffffffffff169060200190929190803590602001909291905050506109d8565b6040518082815260200191505060405180910390f35b6103aa6004803603606081101561038057600080fd5b810190808035906020019092919080359060200190929190803590602001909291905050506109fd565b005b6103ec600480360360608110156103c257600080fd5b81019080803590602001909291908035906020019092919080359060200190929190505050610c41565b005b61041a6004803603602081101561040457600080fd5b8101908080359060200190929190505050610dc4565b6040518082815260200191505060405180910390f35b610438610de5565b005b6104666004803603602081101561045057600080fd5b8101908080359060200190929190505050610f1e565b005b610470611258565b604051808273ffffffffffffffffffffffffffffffffffffffff1673ffffffffffffffffffffffffffffffffffffffff16815260200191505060405180910390f35b6104ba611281565b604051808215151515815260200191505060405180910390f35b610500600480360360208110156104ea57600080fd5b81019080803590602001909291905050506112d8565b005b61052e6004803603602081101561051857600080fd5b8101908080359060200190929190505050611591565b6040518082815260200191505060405180910390f35b6105866004803603602081101561055a57600080fd5b81019080803573ffffffffffffffffffffffffffffffffffffffff1690602001909291905050506115b2565b6040518082815260200191505060405180910390f35b6105c8600480360360208110156105b257600080fd5b81019080803590602001909291905050506115ca565b6040518082815260200191505060405180910390f35b610620600480360360208110156105f457600080fd5b81019080803573ffffffffffffffffffffffffffffffffffffffff1690602001909291905050506115eb565b005b61062a611671565b6040518082815260200191505060405180910390f35b60025481565b8460035401600381905550600a60009054906101000a900473ffffffffffffffffffffffffffffffffffffffff1673ffffffffffffffffffffffffffffffffffffffff166323b872dd3330886040518463ffffffff1660e01b8152600401808473ffffffffffffffffffffffffffffffffffffffff1673ffffffffffffffffffffffffffffffffffffffff1681526020018373ffffffffffffffffffffffffffffffffffffffff1673ffffffffffffffffffffffffffffffffffffffff1681526020018281526020019350505050602060405180830381600087803b15801561072e57600080fd5b505af1158015610742573d6000803e3d6000fd5b505050506040513d602081101561075857600080fd5b81019080805190602001909291905050505061077733858585856116b8565b5050505050565b60066020528060005260406000206000915090505481565b600b60009054906101000a900473ffffffffffffffffffffffffffffffffffffffff1673ffffffffffffffffffffffffffffffffffffffff166342966c68826040518263ffffffff1660e01b815260040180828152602001915050600060405180830381600087803b15801561080b57600080fd5b505af115801561081f573d6000803e3d6000fd5b505050507f5f20ff83944adf81d4a9e39ca58b8dddcad9e5512de2ba7909141620bbeea8fb816040518082815260200191505060405180910390a150565b60016020528060005260406000206000915054906101000a900460ff1681565b6000806000905060018314156108f15760008090505b6007805490508110156108e75781600782815481106108ae57fe5b906000526020600020015411156108da57600781815481106108cc57fe5b906000526020600020015491505b8080600101915050610893565b50809150506109cd565b600383141561095e5760008090505b60088054905081101561095457816008828154811061091b57fe5b90600052602060002001541115610947576008818154811061093957fe5b906000526020600020015491505b8080600101915050610900565b50809150506109cd565b60068314156109cb5760008090505b6009805490508110156109c157816009828154811061098857fe5b906000526020600020015411156109b457600981815481106109a657fe5b906000526020600020015491505b808060010191505061096d565b50809150506109cd565b505b919050565b60035481565b6005602052816000526040600020602052806000526040600020600091509150505481565b60001515600160003373ffffffffffffffffffffffffffffffffffffffff1673ffffffffffffffffffffffffffffffffffffffff16815260200190815260200160002060009054906101000a900460ff16151514610ac3576040517f08c379a00000000000000000000000000000000000000000000000000000000081526004018080602001828103825260128152602001807f416c72656164792072656769737465726564000000000000000000000000000081525060200191505060405180910390fd5b60018060003373ffffffffffffffffffffffffffffffffffffffff1673ffffffffffffffffffffffffffffffffffffffff16815260200190815260200160002060006101000a81548160ff021916908315150217905550600260008154809291906001019190505550600160025403600660003373ffffffffffffffffffffffffffffffffffffffff1673ffffffffffffffffffffffffffffffffffffffff168152602001908152602001600020819055506007839080600181540180825580915050906001820390600052602060002001600090919290919091505550600882908060018154018082558091505090600182039060005260206000200160009091929091909150555060098190806001815401808255809150509060018203906000526020600020016000909192909190915055503373ffffffffffffffffffffffffffffffffffffffff167f7da667b7e53fd91c5c81dd04218dfeaf76bc21abab365a45c6b86d0d046ea93a60405160405180910390a2505050565b600160003373ffffffffffffffffffffffffffffffffffffffff1673ffffffffffffffffffffffffffffffffffffffff16815260200190815260200160002060009054906101000a900460ff16610d00576040517f08c379a000000000000000000000000000000000000000000000000000000000815260040180806020018281038252601b8152602001807f4d757374206265206120726567697374657265642042616e6b6572000000000081525060200191505060405180910390fd5b6000610d0a611671565b90508360078281548110610d1a57fe5b90600052602060002001819055508260088281548110610d3657fe5b90600052602060002001819055508160098281548110610d5257fe5b90600052602060002001819055503373ffffffffffffffffffffffffffffffffffffffff167fbdd4517f3a0446f7b439115a872fc9d5858784373870646dc5a5e2a45508798a85858560405180848152602001838152602001828152602001935050505060405180910390a250505050565b60088181548110610dd157fe5b906000526020600020016000915090505481565b610ded611281565b610e5f576040517f08c379a00000000000000000000000000000000000000000000000000000000081526004018080602001828103825260208152602001807f4f776e61626c653a2063616c6c6572206973206e6f7420746865206f776e657281525060200191505060405180910390fd5b600073ffffffffffffffffffffffffffffffffffffffff166000809054906101000a900473ffffffffffffffffffffffffffffffffffffffff1673ffffffffffffffffffffffffffffffffffffffff167f8be0079c531659141344cd1fd0a4f28419497f9722a3daafe3b4186f6b6457e060405160405180910390a360008060006101000a81548173ffffffffffffffffffffffffffffffffffffffff021916908373ffffffffffffffffffffffffffffffffffffffff160217905550565b600160003373ffffffffffffffffffffffffffffffffffffffff1673ffffffffffffffffffffffffffffffffffffffff16815260200190815260200160002060009054906101000a900460ff16610fdd576040517f08c379a000000000000000000000000000000000000000000000000000000000815260040180806020018281038252601b8152602001807f4d757374206265206120726567697374657265642042616e6b6572000000000081525060200191505060405180910390fd5b600460003373ffffffffffffffffffffffffffffffffffffffff1673ffffffffffffffffffffffffffffffffffffffff16815260200190815260200160002054811115611092576040517f08c379a00000000000000000000000000000000000000000000000000000000081526004018080602001828103825260128152602001807f4e6f7420656e6f7567682062616c616e6365000000000000000000000000000081525060200191505060405180910390fd5b80600460003373ffffffffffffffffffffffffffffffffffffffff1673ffffffffffffffffffffffffffffffffffffffff1681526020019081526020016000205403600460003373ffffffffffffffffffffffffffffffffffffffff1673ffffffffffffffffffffffffffffffffffffffff168152602001908152602001600020819055508060035403600381905550600a60009054906101000a900473ffffffffffffffffffffffffffffffffffffffff1673ffffffffffffffffffffffffffffffffffffffff1663a9059cbb33836040518363ffffffff1660e01b8152600401808373ffffffffffffffffffffffffffffffffffffffff1673ffffffffffffffffffffffffffffffffffffffff16815260200182815260200192505050602060405180830381600087803b1580156111cb57600080fd5b505af11580156111df573d6000803e3d6000fd5b505050506040513d60208110156111f557600080fd5b8101908080519060200190929190505050503373ffffffffffffffffffffffffffffffffffffffff167f50324ab8694fdbcb68180c992fe91a714bc20bd96b9efb468d25b3157feadfce826040518082815260200191505060405180910390a250565b60008060009054906101000a900473ffffffffffffffffffffffffffffffffffffffff16905090565b60008060009054906101000a900473ffffffffffffffffffffffffffffffffffffffff1673ffffffffffffffffffffffffffffffffffffffff163373ffffffffffffffffffffffffffffffffffffffff1614905090565b600160003373ffffffffffffffffffffffffffffffffffffffff1673ffffffffffffffffffffffffffffffffffffffff16815260200190815260200160002060009054906101000a900460ff16611397576040517f08c379a000000000000000000000000000000000000000000000000000000000815260040180806020018281038252601b8152602001807f4d757374206265206120726567697374657265642042616e6b6572000000000081525060200191505060405180910390fd5b80600460003373ffffffffffffffffffffffffffffffffffffffff1673ffffffffffffffffffffffffffffffffffffffff1681526020019081526020016000205401600460003373ffffffffffffffffffffffffffffffffffffffff1673ffffffffffffffffffffffffffffffffffffffff168152602001908152602001600020819055508060035401600381905550600a60009054906101000a900473ffffffffffffffffffffffffffffffffffffffff1673ffffffffffffffffffffffffffffffffffffffff166323b872dd3330846040518463ffffffff1660e01b8152600401808473ffffffffffffffffffffffffffffffffffffffff1673ffffffffffffffffffffffffffffffffffffffff1681526020018373ffffffffffffffffffffffffffffffffffffffff1673ffffffffffffffffffffffffffffffffffffffff1681526020018281526020019350505050602060405180830381600087803b15801561150457600080fd5b505af1158015611518573d6000803e3d6000fd5b505050506040513d602081101561152e57600080fd5b8101908080519060200190929190505050503373ffffffffffffffffffffffffffffffffffffffff167fcb2fd0cdf3332cbef3682ac599fac606f912d317b0d64f7bbecb79dfc72c5b4e826040518082815260200191505060405180910390a250565b6009818154811061159e57fe5b906000526020600020016000915090505481565b60046020528060005260406000206000915090505481565b600781815481106115d757fe5b906000526020600020016000915090505481565b6115f3611281565b611665576040517f08c379a00000000000000000000000000000000000000000000000000000000081526004018080602001828103825260208152602001807f4f776e61626c653a2063616c6c6572206973206e6f7420746865206f776e657281525060200191505060405180910390fd5b61166e81611845565b50565b6000600660003373ffffffffffffffffffffffffffffffffffffffff1673ffffffffffffffffffffffffffffffffffffffff16815260200190815260200160002054905090565b600b60009054906101000a900473ffffffffffffffffffffffffffffffffffffffff1673ffffffffffffffffffffffffffffffffffffffff166353a59c3d86868686866040518663ffffffff1660e01b8152600401808673ffffffffffffffffffffffffffffffffffffffff1673ffffffffffffffffffffffffffffffffffffffff1681526020018573ffffffffffffffffffffffffffffffffffffffff1673ffffffffffffffffffffffffffffffffffffffff16815260200184815260200183815260200182815260200195505050505050602060405180830381600087803b1580156117a557600080fd5b505af11580156117b9573d6000803e3d6000fd5b505050506040513d60208110156117cf57600080fd5b8101908080519060200190929190505050508373ffffffffffffffffffffffffffffffffffffffff167e548cb25ca67fac044508eb4b3b7f4c4700d77a4b5be767edd810b04572d84684848460405180848152602001838152602001828152602001935050505060405180910390a25050505050565b600073ffffffffffffffffffffffffffffffffffffffff168173ffffffffffffffffffffffffffffffffffffffff1614156118cb576040517f08c379a000000000000000000000000000000000000000000000000000000000815260040180806020018281038252602681526020018061198a6026913960400191505060405180910390fd5b8073ffffffffffffffffffffffffffffffffffffffff166000809054906101000a900473ffffffffffffffffffffffffffffffffffffffff1673ffffffffffffffffffffffffffffffffffffffff167f8be0079c531659141344cd1fd0a4f28419497f9722a3daafe3b4186f6b6457e060405160405180910390a3806000806101000a81548173ffffffffffffffffffffffffffffffffffffffff021916908373ffffffffffffffffffffffffffffffffffffffff1602179055505056fe4f776e61626c653a206e6577206f776e657220697320746865207a65726f2061646472657373a165627a7a7230582020e6e37c6bf62d1aa28f0f6e18ed18f5f849740f166231b2bf41b3918cfb66010029",
  "source": "pragma solidity ^0.5.0;\n\nimport \"@openzeppelin/contracts/ownership/Ownable.sol\";\nimport \"@openzeppelin/contracts/token/ERC721/ERC721.sol\";\nimport \"@openzeppelin/contracts/token/ERC20/ERC20.sol\";\nimport \"./CDRW.sol\";\n\n/**\n * @title IMoneyMarketAdapter\n * @dev Interface used by `MetaMoneyMarket` to interact with its underlying money markets.\n */\ninterface IMoneyMarketAdapter {\n  /**\n    * @dev Returns the interest rate per block for the given token.\n    */\n  function getRate(address tokenAddress) external view returns (uint256);\n\n  /**\n    * @dev Deposits the given amount of tokens in the underlying money market.\n    */\n  function deposit(address tokenAddress, uint256 tokenAmount) external;\n\n  /**\n    * @dev Withdraws the given amount of tokens from the underlying money market and transfers them to `recipient`.\n    */\n  function withdraw(address tokenAddress, address recipient, uint256 amount)\n    external;\n\n  /**\n    * @dev Withdraws all the tokens from the underlying money market and transfers them to `recipient`.\n    */\n  function withdrawAll(address tokenAddress, address recipient) external;\n\n  function claimTokens(address tokenAddress, address recipient) external;\n\n  /**\n    * @dev Returns the supply for the given token, including accrued interest. This function can have side effects.\n    */\n  function getSupply(address tokenAddress) external returns (uint256);\n\n  /**\n    * @dev Returns the supply for the given token; it might not include accrued interest. This function *cannot* have side effects.\n    */\n  function getSupplyView(address tokenAddress) external view returns (uint256);\n\n  /**\n    * @dev Indicates if the adapter supports the token with the given address.\n    */\n  function supportsToken(address tokenAddress) external view returns (bool);\n}\n\n\ncontract Bank is Ownable {\n    // PUBLIC VALUES\n    mapping(address => bool) public registeredBankers;\n    uint public registeredBankersCount = 0;\n\n    uint public interestPoolBalance;\n    mapping(address => uint) public bankerPoolBalance;\n    mapping(address => mapping(uint => uint)) public bankerOpenCDs;\n\n    mapping(address => uint) public rateIndex;\n    uint[] public oneMonthRates;\n    uint[] public threeMonthRates;\n    uint[] public sixMonthRates;\n\n    address internal dai;\n    CDRW cdrw;\n\n    event BankerInterestAddedToPool(\n        address indexed bankerAddress,\n        uint amount\n    );\n\n    event BankerInterestRemovedFromPool(\n        address indexed bankerAddress,\n        uint amount\n    );\n\n    event BankerRegistered(\n        address indexed bankerAddress\n    );\n\n    event UpdatedBankerInterestRates(\n        address indexed bankerAddress,\n        uint oneMonthRate,\n        uint threeMonthRate,\n        uint sixMonthRate\n    );\n\n    event OpenedCertificateOfDeposit(\n        address indexed bankerAddress,\n        uint termLength,\n        uint principleAmount,\n        uint interestRate\n    );\n\n    event RedeemedCertificateOfDeposit(\n        uint tokenId\n    );\n\n    constructor(address _cdTokenAddress, address _dai) public {\n        cdrw = CDRW(_cdTokenAddress);\n        dai = _dai;\n    }\n\n    modifier onlyRegistered() {\n        require(registeredBankers[msg.sender], \"Must be a registered Banker\");\n        _;\n    }\n\n    modifier notAlreadyRegistered() {\n        require(registeredBankers[msg.sender] == false, \"Already registered\");\n        _;\n    }\n\n    function registerBanker(uint oneMonth, uint threeMonths, uint sixMonths) notAlreadyRegistered public {\n        registeredBankers[msg.sender] = true;\n        registeredBankersCount++;\n\n        rateIndex[msg.sender] = registeredBankersCount - 1;\n\n        oneMonthRates.push(oneMonth);\n        threeMonthRates.push(threeMonths);\n        sixMonthRates.push(sixMonths);\n\n        emit BankerRegistered(msg.sender);\n    }\n\n    function addBankerInterestToPool(uint amount) public onlyRegistered {\n        bankerPoolBalance[msg.sender] = bankerPoolBalance[msg.sender] + amount;\n        interestPoolBalance = interestPoolBalance + amount;\n\n        ERC20(dai).transferFrom(msg.sender, address(this), amount);\n\n        emit BankerInterestAddedToPool(msg.sender, amount);\n    }\n\n    function addBuyerDepositToPool(uint amount, address banker, uint termLength, uint principleAmount, uint interestAmount) public {\n        interestPoolBalance = interestPoolBalance + amount;\n\n        ERC20(dai).transferFrom(msg.sender, address(this), amount);\n\n        openCertificateOfDeposit(\n            msg.sender,\n            banker,\n            termLength,\n            principleAmount,\n            interestAmount\n        );\n    }\n\n    function removeBankerInterestFromPool(uint amount) public onlyRegistered {\n        require(amount <= bankerPoolBalance[msg.sender], \"Not enough balance\");\n\n        bankerPoolBalance[msg.sender] = bankerPoolBalance[msg.sender] - amount;\n        interestPoolBalance = interestPoolBalance - amount;\n\n        ERC20(dai).transfer(msg.sender, amount);\n\n        emit BankerInterestRemovedFromPool(msg.sender, amount);\n    }\n\n    function updateBankerInterestRates(uint oneMonth, uint threeMonths, uint sixMonths) onlyRegistered public {\n        uint userIndexPosition = getUserIndexPosition();\n\n        oneMonthRates[userIndexPosition] = oneMonth;\n        threeMonthRates[userIndexPosition] = threeMonths;\n        sixMonthRates[userIndexPosition] = sixMonths;\n\n        emit UpdatedBankerInterestRates(msg.sender, oneMonth, threeMonths, sixMonths);\n    }\n\n    function getBestRate(uint termLength) public view returns (uint rate) {\n        uint bestRate = 0;\n\n        if(termLength == 1) {\n            for(uint i = 0; i < oneMonthRates.length; i++) {\n                if(oneMonthRates[i] > bestRate) {\n                    bestRate = oneMonthRates[i];\n                }\n            }\n\n            return(bestRate);\n        } else if (termLength == 3) {\n            for(uint i = 0; i < threeMonthRates.length; i++) {\n                if(threeMonthRates[i] > bestRate) {\n                    bestRate = threeMonthRates[i];\n                }\n            }\n\n            return(bestRate);\n        } else if (termLength == 6) {\n            for(uint i = 0; i < sixMonthRates.length; i++) {\n                if(sixMonthRates[i] > bestRate) {\n                    bestRate = sixMonthRates[i];\n                }\n            }\n\n            return(bestRate);\n        }\n    }\n\n    function openCertificateOfDeposit(\n        address _to,\n        address _banker,\n        uint _termLength,\n        uint _principleAmount,\n        uint _interestAmount\n    ) internal {\n        cdrw.createCertificateOfDeposit(\n            _to,\n            _banker,\n            _termLength,\n            _principleAmount,\n            _interestAmount\n        );\n\n        emit OpenedCertificateOfDeposit(_banker, _termLength, _principleAmount, _interestAmount);\n    }\n\n    function redeemCertificateOfDeposit(\n        uint tokenId\n    ) public {\n        cdrw.burn(tokenId);\n\n        emit RedeemedCertificateOfDeposit(tokenId);\n    }\n\n    function getUserIndexPosition() public view returns(uint indexPosition) {\n        return(rateIndex[msg.sender]);\n    }\n}",
  "sourcePath": "/Users/travis/Projects/ETHBoston/cd-bank/contracts/Bank.sol",
  "compiler": {
    "name": "solc",
    "version": "0.5.8+commit.23d335f2.Emscripten.clang"
  },
  "schemaVersion": "3.0.15",
  "updatedAt": "2019-09-08T12:52:43.041Z",
  "devdoc": {
    "methods": {
      "isOwner()": {
        "details": "Returns true if the caller is the current owner."
      },
      "owner()": {
        "details": "Returns the address of the current owner."
      },
      "renounceOwnership()": {
        "details": "Leaves the contract without owner. It will not be possible to call `onlyOwner` functions anymore. Can only be called by the current owner.     * > Note: Renouncing ownership will leave the contract without an owner, thereby removing any functionality that is only available to the owner."
      },
      "transferOwnership(address)": {
        "details": "Transfers ownership of the contract to a new account (`newOwner`). Can only be called by the current owner."
      }
    }
  },
  "userdoc": {
    "methods": {}
  }
}